{
  "_format": "hh-sol-artifact-1",
  "contractName": "NFT",
  "sourceName": "contracts/NFT.sol",
  "abi": [
    {
      "inputs": [
        {
          "internalType": "address",
          "name": "marketAddress",
          "type": "address"
        },
        {
          "internalType": "uint256",
          "name": "_fee",
          "type": "uint256"
        },
        {
          "internalType": "address",
          "name": "_owner",
          "type": "address"
        }
      ],
      "stateMutability": "nonpayable",
      "type": "constructor"
    },
    {
      "anonymous": false,
      "inputs": [
        {
          "indexed": true,
          "internalType": "address",
          "name": "account",
          "type": "address"
        },
        {
          "indexed": true,
          "internalType": "address",
          "name": "operator",
          "type": "address"
        },
        {
          "indexed": false,
          "internalType": "bool",
          "name": "approved",
          "type": "bool"
        }
      ],
      "name": "ApprovalForAll",
      "type": "event"
    },
    {
      "anonymous": false,
      "inputs": [
        {
          "indexed": true,
          "internalType": "address",
          "name": "previousOwner",
          "type": "address"
        },
        {
          "indexed": true,
          "internalType": "address",
          "name": "newOwner",
          "type": "address"
        }
      ],
      "name": "OwnershipTransferred",
      "type": "event"
    },
    {
      "anonymous": false,
      "inputs": [
        {
          "indexed": true,
          "internalType": "address",
          "name": "operator",
          "type": "address"
        },
        {
          "indexed": true,
          "internalType": "address",
          "name": "from",
          "type": "address"
        },
        {
          "indexed": true,
          "internalType": "address",
          "name": "to",
          "type": "address"
        },
        {
          "indexed": false,
          "internalType": "uint256[]",
          "name": "ids",
          "type": "uint256[]"
        },
        {
          "indexed": false,
          "internalType": "uint256[]",
          "name": "values",
          "type": "uint256[]"
        }
      ],
      "name": "TransferBatch",
      "type": "event"
    },
    {
      "anonymous": false,
      "inputs": [
        {
          "indexed": true,
          "internalType": "address",
          "name": "operator",
          "type": "address"
        },
        {
          "indexed": true,
          "internalType": "address",
          "name": "from",
          "type": "address"
        },
        {
          "indexed": true,
          "internalType": "address",
          "name": "to",
          "type": "address"
        },
        {
          "indexed": false,
          "internalType": "uint256",
          "name": "id",
          "type": "uint256"
        },
        {
          "indexed": false,
          "internalType": "uint256",
          "name": "value",
          "type": "uint256"
        }
      ],
      "name": "TransferSingle",
      "type": "event"
    },
    {
      "anonymous": false,
      "inputs": [
        {
          "indexed": false,
          "internalType": "string",
          "name": "value",
          "type": "string"
        },
        {
          "indexed": true,
          "internalType": "uint256",
          "name": "id",
          "type": "uint256"
        }
      ],
      "name": "URI",
      "type": "event"
    },
    {
      "inputs": [
        {
          "internalType": "address",
          "name": "account",
          "type": "address"
        },
        {
          "internalType": "uint256",
          "name": "id",
          "type": "uint256"
        }
      ],
      "name": "balanceOf",
      "outputs": [
        {
          "internalType": "uint256",
          "name": "",
          "type": "uint256"
        }
      ],
      "stateMutability": "view",
      "type": "function"
    },
    {
      "inputs": [
        {
          "internalType": "address[]",
          "name": "accounts",
          "type": "address[]"
        },
        {
          "internalType": "uint256[]",
          "name": "ids",
          "type": "uint256[]"
        }
      ],
      "name": "balanceOfBatch",
      "outputs": [
        {
          "internalType": "uint256[]",
          "name": "",
          "type": "uint256[]"
        }
      ],
      "stateMutability": "view",
      "type": "function"
    },
    {
      "inputs": [
        {
          "internalType": "uint256",
          "name": "id",
          "type": "uint256"
        }
      ],
      "name": "burn",
      "outputs": [],
      "stateMutability": "nonpayable",
      "type": "function"
    },
    {
      "inputs": [],
      "name": "currentId",
      "outputs": [
        {
          "internalType": "uint256",
          "name": "",
          "type": "uint256"
        }
      ],
      "stateMutability": "view",
      "type": "function"
    },
    {
      "inputs": [],
      "name": "fee",
      "outputs": [
        {
          "internalType": "uint256",
          "name": "",
          "type": "uint256"
        }
      ],
      "stateMutability": "view",
      "type": "function"
    },
    {
      "inputs": [],
      "name": "getCreator",
      "outputs": [
        {
          "internalType": "address",
          "name": "",
          "type": "address"
        }
      ],
      "stateMutability": "view",
      "type": "function"
    },
    {
      "inputs": [],
      "name": "getFee",
      "outputs": [
        {
          "internalType": "uint256",
          "name": "",
          "type": "uint256"
        }
      ],
      "stateMutability": "view",
      "type": "function"
    },
    {
      "inputs": [
        {
          "internalType": "address",
          "name": "account",
          "type": "address"
        },
        {
          "internalType": "address",
          "name": "operator",
          "type": "address"
        }
      ],
      "name": "isApprovedForAll",
      "outputs": [
        {
          "internalType": "bool",
          "name": "",
          "type": "bool"
        }
      ],
      "stateMutability": "view",
      "type": "function"
    },
    {
      "inputs": [
        {
          "internalType": "address",
          "name": "reciever",
          "type": "address"
        },
        {
          "internalType": "uint256",
          "name": "id",
          "type": "uint256"
        }
      ],
      "name": "mint",
      "outputs": [],
      "stateMutability": "nonpayable",
      "type": "function"
    },
    {
      "inputs": [],
      "name": "owner",
      "outputs": [
        {
          "internalType": "address",
          "name": "",
          "type": "address"
        }
      ],
      "stateMutability": "view",
      "type": "function"
    },
    {
      "inputs": [],
      "name": "renounceOwnership",
      "outputs": [],
      "stateMutability": "nonpayable",
      "type": "function"
    },
    {
      "inputs": [
        {
          "internalType": "address",
          "name": "from",
          "type": "address"
        },
        {
          "internalType": "address",
          "name": "to",
          "type": "address"
        },
        {
          "internalType": "uint256[]",
          "name": "ids",
          "type": "uint256[]"
        },
        {
          "internalType": "uint256[]",
          "name": "amounts",
          "type": "uint256[]"
        },
        {
          "internalType": "bytes",
          "name": "data",
          "type": "bytes"
        }
      ],
      "name": "safeBatchTransferFrom",
      "outputs": [],
      "stateMutability": "nonpayable",
      "type": "function"
    },
    {
      "inputs": [
        {
          "internalType": "address",
          "name": "from",
          "type": "address"
        },
        {
          "internalType": "address",
          "name": "to",
          "type": "address"
        },
        {
          "internalType": "uint256",
          "name": "id",
          "type": "uint256"
        },
        {
          "internalType": "uint256",
          "name": "amount",
          "type": "uint256"
        },
        {
          "internalType": "bytes",
          "name": "data",
          "type": "bytes"
        }
      ],
      "name": "safeTransferFrom",
      "outputs": [],
      "stateMutability": "nonpayable",
      "type": "function"
    },
    {
      "inputs": [
        {
          "internalType": "address",
          "name": "operator",
          "type": "address"
        },
        {
          "internalType": "bool",
          "name": "approved",
          "type": "bool"
        }
      ],
      "name": "setApprovalForAll",
      "outputs": [],
      "stateMutability": "nonpayable",
      "type": "function"
    },
    {
      "inputs": [
        {
          "internalType": "bytes4",
          "name": "interfaceId",
          "type": "bytes4"
        }
      ],
      "name": "supportsInterface",
      "outputs": [
        {
          "internalType": "bool",
          "name": "",
          "type": "bool"
        }
      ],
      "stateMutability": "view",
      "type": "function"
    },
    {
      "inputs": [
        {
          "internalType": "address",
          "name": "newOwner",
          "type": "address"
        }
      ],
      "name": "transferOwnership",
      "outputs": [],
      "stateMutability": "nonpayable",
      "type": "function"
    },
    {
      "inputs": [
        {
          "internalType": "uint256",
          "name": "i",
          "type": "uint256"
        }
      ],
      "name": "uint2hexstr",
      "outputs": [
        {
          "internalType": "string",
          "name": "",
          "type": "string"
        }
      ],
      "stateMutability": "pure",
      "type": "function"
    },
    {
      "inputs": [
        {
          "internalType": "uint256",
          "name": "_tokenID",
          "type": "uint256"
        }
      ],
      "name": "uri",
      "outputs": [
        {
          "internalType": "string",
          "name": "",
          "type": "string"
        }
      ],
      "stateMutability": "view",
      "type": "function"
    }
  ],
  "bytecode": "0x60806040523480156200001157600080fd5b5060405162003b1e38038062003b1e833981810160405281019062000037919062000447565b60405180606001604052806022815260200162003afc602291396200006281620000e760201b60201c565b5062000083620000776200010360201b60201c565b6200010b60201b60201c565b62000096836001620001d160201b60201c565b8160048190555080600660006101000a81548173ffffffffffffffffffffffffffffffffffffffff021916908373ffffffffffffffffffffffffffffffffffffffff16021790555050505062000657565b8060029080519060200190620000ff92919062000369565b5050565b600033905090565b6000600360009054906101000a900473ffffffffffffffffffffffffffffffffffffffff16905081600360006101000a81548173ffffffffffffffffffffffffffffffffffffffff021916908373ffffffffffffffffffffffffffffffffffffffff1602179055508173ffffffffffffffffffffffffffffffffffffffff168173ffffffffffffffffffffffffffffffffffffffff167f8be0079c531659141344cd1fd0a4f28419497f9722a3daafe3b4186f6b6457e060405160405180910390a35050565b620001f3620001e56200010360201b60201c565b8383620001f760201b60201c565b5050565b8173ffffffffffffffffffffffffffffffffffffffff168373ffffffffffffffffffffffffffffffffffffffff16141562000269576040517f08c379a00000000000000000000000000000000000000000000000000000000081526004016200026090620004f2565b60405180910390fd5b80600160008573ffffffffffffffffffffffffffffffffffffffff1673ffffffffffffffffffffffffffffffffffffffff16815260200190815260200160002060008473ffffffffffffffffffffffffffffffffffffffff1673ffffffffffffffffffffffffffffffffffffffff16815260200190815260200160002060006101000a81548160ff0219169083151502179055508173ffffffffffffffffffffffffffffffffffffffff168373ffffffffffffffffffffffffffffffffffffffff167f17307eab39ab6107e8899845ad3d59bd9653f200f220920489ca2b5937696c31836040516200035c9190620004d5565b60405180910390a3505050565b82805462000377906200056f565b90600052602060002090601f0160209004810192826200039b5760008555620003e7565b82601f10620003b657805160ff1916838001178555620003e7565b82800160010185558215620003e7579182015b82811115620003e6578251825591602001919060010190620003c9565b5b509050620003f69190620003fa565b5090565b5b8082111562000415576000816000905550600101620003fb565b5090565b6000815190506200042a8162000623565b92915050565b60008151905062000441816200063d565b92915050565b6000806000606084860312156200045d57600080fd5b60006200046d8682870162000419565b9350506020620004808682870162000430565b9250506040620004938682870162000419565b9150509250925092565b620004a88162000539565b82525050565b6000620004bd60298362000514565b9150620004ca82620005d4565b604082019050919050565b6000602082019050620004ec60008301846200049d565b92915050565b600060208201905081810360008301526200050d81620004ae565b9050919050565b600082825260208201905092915050565b6000620005328262000545565b9050919050565b60008115159050919050565b600073ffffffffffffffffffffffffffffffffffffffff82169050919050565b6000819050919050565b600060028204905060018216806200058857607f821691505b602082108114156200059f576200059e620005a5565b5b50919050565b7f4e487b7100000000000000000000000000000000000000000000000000000000600052602260045260246000fd5b7f455243313135353a2073657474696e6720617070726f76616c2073746174757360008201527f20666f722073656c660000000000000000000000000000000000000000000000602082015250565b6200062e8162000525565b81146200063a57600080fd5b50565b620006488162000565565b81146200065457600080fd5b50565b61349580620006676000396000f3fe608060405234801561001057600080fd5b50600436106101155760003560e01c8063715018a6116100a2578063ddca3f4311610071578063ddca3f43146102de578063e00dd161146102fc578063e985e9c51461031a578063f242432a1461034a578063f2fde38b1461036657610115565b8063715018a61461027c5780638da5cb5b14610286578063a22cb465146102a4578063ced72f87146102c057610115565b80632eb2c2d6116100e95780632eb2c2d6146101c85780633c93d8be146101e457806340c10f191461021457806342966c68146102305780634e1273f41461024c57610115565b8062fdd58e1461011a57806301ffc9a71461014a5780630e89341c1461017a5780630ee2cb10146101aa575b600080fd5b610134600480360381019061012f91906122f0565b610382565b6040516101419190612b0d565b60405180910390f35b610164600480360381019061015f9190612398565b61044b565b60405161017191906128f0565b60405180910390f35b610194600480360381019061018f91906123ea565b61052d565b6040516101a1919061290b565b60405180910390f35b6101b2610563565b6040516101bf91906127ba565b60405180910390f35b6101e260048036038101906101dd9190612166565b61058d565b005b6101fe60048036038101906101f991906123ea565b61062e565b60405161020b919061290b565b60405180910390f35b61022e600480360381019061022991906122f0565b6107ef565b005b61024a600480360381019061024591906123ea565b610895565b005b6102666004803603810190610261919061232c565b610920565b6040516102739190612897565b60405180910390f35b610284610ad1565b005b61028e610b59565b60405161029b91906127ba565b60405180910390f35b6102be60048036038101906102b991906122b4565b610b83565b005b6102c8610b99565b6040516102d59190612b0d565b60405180910390f35b6102e6610ba3565b6040516102f39190612b0d565b60405180910390f35b610304610ba9565b6040516103119190612b0d565b60405180910390f35b610334600480360381019061032f919061212a565b610bba565b60405161034191906128f0565b60405180910390f35b610364600480360381019061035f9190612225565b610c4e565b005b610380600480360381019061037b9190612101565b610cef565b005b60008073ffffffffffffffffffffffffffffffffffffffff168373ffffffffffffffffffffffffffffffffffffffff1614156103f3576040517f08c379a00000000000000000000000000000000000000000000000000000000081526004016103ea9061296d565b60405180910390fd5b60008083815260200190815260200160002060008473ffffffffffffffffffffffffffffffffffffffff1673ffffffffffffffffffffffffffffffffffffffff16815260200190815260200160002054905092915050565b60007fd9b67a26000000000000000000000000000000000000000000000000000000007bffffffffffffffffffffffffffffffffffffffffffffffffffffffff1916827bffffffffffffffffffffffffffffffffffffffffffffffffffffffff1916148061051657507f0e89341c000000000000000000000000000000000000000000000000000000007bffffffffffffffffffffffffffffffffffffffffffffffffffffffff1916827bffffffffffffffffffffffffffffffffffffffffffffffffffffffff1916145b80610526575061052582610de7565b5b9050919050565b6060806105398361062e565b90508060405160200161054c9190612798565b604051602081830303815290604052915050919050565b6000600660009054906101000a900473ffffffffffffffffffffffffffffffffffffffff16905090565b610595610e51565b73ffffffffffffffffffffffffffffffffffffffff168573ffffffffffffffffffffffffffffffffffffffff1614806105db57506105da856105d5610e51565b610bba565b5b61061a576040517f08c379a000000000000000000000000000000000000000000000000000000000815260040161061190612a0d565b60405180910390fd5b6106278585858585610e59565b5050505050565b60606000821415610676576040518060400160405280600181526020017f300000000000000000000000000000000000000000000000000000000000000081525090506107ea565b600082905060005b600082146106a057808061069190612de2565b915050600482901c915061067e565b6000600f905060008267ffffffffffffffff8111156106e8577f4e487b7100000000000000000000000000000000000000000000000000000000600052604160045260246000fd5b6040519080825280601f01601f19166020018201604052801561071a5781602001600182028036833780820191505090505b50905060008390505b600087146107e157600083881690506009811161074f578060306107479190612c7b565b60f81b610760565b80603761075c9190612c7b565b60f81b5b838361076b90612d87565b935083815181106107a5577f4e487b7100000000000000000000000000000000000000000000000000000000600052603260045260246000fd5b60200101907effffffffffffffffffffffffffffffffffffffffffffffffffffffffffffff1916908160001a905350600488901c975050610723565b81955050505050505b919050565b6107f7610e51565b73ffffffffffffffffffffffffffffffffffffffff16610815610b59565b73ffffffffffffffffffffffffffffffffffffffff161461086b576040517f08c379a000000000000000000000000000000000000000000000000000000000815260040161086290612a6d565b60405180910390fd5b61087560056111b9565b61089182826001604051806020016040528060008152506111cf565b5050565b61089d610e51565b73ffffffffffffffffffffffffffffffffffffffff166108bb610b59565b73ffffffffffffffffffffffffffffffffffffffff1614610911576040517f08c379a000000000000000000000000000000000000000000000000000000000815260040161090890612a6d565b60405180910390fd5b61091d33826001611365565b50565b60608151835114610966576040517f08c379a000000000000000000000000000000000000000000000000000000000815260040161095d90612aad565b60405180910390fd5b6000835167ffffffffffffffff8111156109a9577f4e487b7100000000000000000000000000000000000000000000000000000000600052604160045260246000fd5b6040519080825280602002602001820160405280156109d75781602001602082028036833780820191505090505b50905060005b8451811015610ac657610a70858281518110610a22577f4e487b7100000000000000000000000000000000000000000000000000000000600052603260045260246000fd5b6020026020010151858381518110610a63577f4e487b7100000000000000000000000000000000000000000000000000000000600052603260045260246000fd5b6020026020010151610382565b828281518110610aa9577f4e487b7100000000000000000000000000000000000000000000000000000000600052603260045260246000fd5b60200260200101818152505080610abf90612de2565b90506109dd565b508091505092915050565b610ad9610e51565b73ffffffffffffffffffffffffffffffffffffffff16610af7610b59565b73ffffffffffffffffffffffffffffffffffffffff1614610b4d576040517f08c379a0000000000000000000000000000000000000000000000000000000008152600401610b4490612a6d565b60405180910390fd5b610b576000611582565b565b6000600360009054906101000a900473ffffffffffffffffffffffffffffffffffffffff16905090565b610b95610b8e610e51565b8383611648565b5050565b6000600454905090565b60045481565b6000610bb560056117b5565b905090565b6000600160008473ffffffffffffffffffffffffffffffffffffffff1673ffffffffffffffffffffffffffffffffffffffff16815260200190815260200160002060008373ffffffffffffffffffffffffffffffffffffffff1673ffffffffffffffffffffffffffffffffffffffff16815260200190815260200160002060009054906101000a900460ff16905092915050565b610c56610e51565b73ffffffffffffffffffffffffffffffffffffffff168573ffffffffffffffffffffffffffffffffffffffff161480610c9c5750610c9b85610c96610e51565b610bba565b5b610cdb576040517f08c379a0000000000000000000000000000000000000000000000000000000008152600401610cd2906129cd565b60405180910390fd5b610ce885858585856117c3565b5050505050565b610cf7610e51565b73ffffffffffffffffffffffffffffffffffffffff16610d15610b59565b73ffffffffffffffffffffffffffffffffffffffff1614610d6b576040517f08c379a0000000000000000000000000000000000000000000000000000000008152600401610d6290612a6d565b60405180910390fd5b600073ffffffffffffffffffffffffffffffffffffffff168173ffffffffffffffffffffffffffffffffffffffff161415610ddb576040517f08c379a0000000000000000000000000000000000000000000000000000000008152600401610dd29061298d565b60405180910390fd5b610de481611582565b50565b60007f01ffc9a7000000000000000000000000000000000000000000000000000000007bffffffffffffffffffffffffffffffffffffffffffffffffffffffff1916827bffffffffffffffffffffffffffffffffffffffffffffffffffffffff1916149050919050565b600033905090565b8151835114610e9d576040517f08c379a0000000000000000000000000000000000000000000000000000000008152600401610e9490612acd565b60405180910390fd5b600073ffffffffffffffffffffffffffffffffffffffff168473ffffffffffffffffffffffffffffffffffffffff161415610f0d576040517f08c379a0000000000000000000000000000000000000000000000000000000008152600401610f04906129ed565b60405180910390fd5b6000610f17610e51565b9050610f27818787878787611a45565b60005b8451811015611124576000858281518110610f6e577f4e487b7100000000000000000000000000000000000000000000000000000000600052603260045260246000fd5b602002602001015190506000858381518110610fb3577f4e487b7100000000000000000000000000000000000000000000000000000000600052603260045260246000fd5b60200260200101519050600080600084815260200190815260200160002060008b73ffffffffffffffffffffffffffffffffffffffff1673ffffffffffffffffffffffffffffffffffffffff16815260200190815260200160002054905081811015611054576040517f08c379a000000000000000000000000000000000000000000000000000000000815260040161104b90612a4d565b60405180910390fd5b81810360008085815260200190815260200160002060008c73ffffffffffffffffffffffffffffffffffffffff1673ffffffffffffffffffffffffffffffffffffffff168152602001908152602001600020819055508160008085815260200190815260200160002060008b73ffffffffffffffffffffffffffffffffffffffff1673ffffffffffffffffffffffffffffffffffffffff16815260200190815260200160002060008282546111099190612c7b565b925050819055505050508061111d90612de2565b9050610f2a565b508473ffffffffffffffffffffffffffffffffffffffff168673ffffffffffffffffffffffffffffffffffffffff168273ffffffffffffffffffffffffffffffffffffffff167f4a39dc06d4c0dbc64b70af90fd698a233a518aa5d07e595d983b8c0526c8f7fb878760405161119b9291906128b9565b60405180910390a46111b1818787878787611a4d565b505050505050565b6001816000016000828254019250508190555050565b600073ffffffffffffffffffffffffffffffffffffffff168473ffffffffffffffffffffffffffffffffffffffff16141561123f576040517f08c379a000000000000000000000000000000000000000000000000000000000815260040161123690612aed565b60405180910390fd5b6000611249610e51565b905061126a8160008761125b88611c34565b61126488611c34565b87611a45565b8260008086815260200190815260200160002060008773ffffffffffffffffffffffffffffffffffffffff1673ffffffffffffffffffffffffffffffffffffffff16815260200190815260200160002060008282546112c99190612c7b565b925050819055508473ffffffffffffffffffffffffffffffffffffffff16600073ffffffffffffffffffffffffffffffffffffffff168273ffffffffffffffffffffffffffffffffffffffff167fc3d58168c5ae7397731d063d5bbf3d657854427343f4c083240f7aacaa2d0f628787604051611347929190612b28565b60405180910390a461135e81600087878787611cfa565b5050505050565b600073ffffffffffffffffffffffffffffffffffffffff168373ffffffffffffffffffffffffffffffffffffffff1614156113d5576040517f08c379a00000000000000000000000000000000000000000000000000000000081526004016113cc90612a2d565b60405180910390fd5b60006113df610e51565b905061140f818560006113f187611c34565b6113fa87611c34565b60405180602001604052806000815250611a45565b600080600085815260200190815260200160002060008673ffffffffffffffffffffffffffffffffffffffff1673ffffffffffffffffffffffffffffffffffffffff168152602001908152602001600020549050828110156114a6576040517f08c379a000000000000000000000000000000000000000000000000000000000815260040161149d906129ad565b60405180910390fd5b82810360008086815260200190815260200160002060008773ffffffffffffffffffffffffffffffffffffffff1673ffffffffffffffffffffffffffffffffffffffff16815260200190815260200160002081905550600073ffffffffffffffffffffffffffffffffffffffff168573ffffffffffffffffffffffffffffffffffffffff168373ffffffffffffffffffffffffffffffffffffffff167fc3d58168c5ae7397731d063d5bbf3d657854427343f4c083240f7aacaa2d0f628787604051611573929190612b28565b60405180910390a45050505050565b6000600360009054906101000a900473ffffffffffffffffffffffffffffffffffffffff16905081600360006101000a81548173ffffffffffffffffffffffffffffffffffffffff021916908373ffffffffffffffffffffffffffffffffffffffff1602179055508173ffffffffffffffffffffffffffffffffffffffff168173ffffffffffffffffffffffffffffffffffffffff167f8be0079c531659141344cd1fd0a4f28419497f9722a3daafe3b4186f6b6457e060405160405180910390a35050565b8173ffffffffffffffffffffffffffffffffffffffff168373ffffffffffffffffffffffffffffffffffffffff1614156116b7576040517f08c379a00000000000000000000000000000000000000000000000000000000081526004016116ae90612a8d565b60405180910390fd5b80600160008573ffffffffffffffffffffffffffffffffffffffff1673ffffffffffffffffffffffffffffffffffffffff16815260200190815260200160002060008473ffffffffffffffffffffffffffffffffffffffff1673ffffffffffffffffffffffffffffffffffffffff16815260200190815260200160002060006101000a81548160ff0219169083151502179055508173ffffffffffffffffffffffffffffffffffffffff168373ffffffffffffffffffffffffffffffffffffffff167f17307eab39ab6107e8899845ad3d59bd9653f200f220920489ca2b5937696c31836040516117a891906128f0565b60405180910390a3505050565b600081600001549050919050565b600073ffffffffffffffffffffffffffffffffffffffff168473ffffffffffffffffffffffffffffffffffffffff161415611833576040517f08c379a000000000000000000000000000000000000000000000000000000000815260040161182a906129ed565b60405180910390fd5b600061183d610e51565b905061185d81878761184e88611c34565b61185788611c34565b87611a45565b600080600086815260200190815260200160002060008873ffffffffffffffffffffffffffffffffffffffff1673ffffffffffffffffffffffffffffffffffffffff168152602001908152602001600020549050838110156118f4576040517f08c379a00000000000000000000000000000000000000000000000000000000081526004016118eb90612a4d565b60405180910390fd5b83810360008087815260200190815260200160002060008973ffffffffffffffffffffffffffffffffffffffff1673ffffffffffffffffffffffffffffffffffffffff168152602001908152602001600020819055508360008087815260200190815260200160002060008873ffffffffffffffffffffffffffffffffffffffff1673ffffffffffffffffffffffffffffffffffffffff16815260200190815260200160002060008282546119a99190612c7b565b925050819055508573ffffffffffffffffffffffffffffffffffffffff168773ffffffffffffffffffffffffffffffffffffffff168373ffffffffffffffffffffffffffffffffffffffff167fc3d58168c5ae7397731d063d5bbf3d657854427343f4c083240f7aacaa2d0f628888604051611a26929190612b28565b60405180910390a4611a3c828888888888611cfa565b50505050505050565b505050505050565b611a6c8473ffffffffffffffffffffffffffffffffffffffff16611ee1565b15611c2c578373ffffffffffffffffffffffffffffffffffffffff1663bc197c8187878686866040518663ffffffff1660e01b8152600401611ab29594939291906127d5565b602060405180830381600087803b158015611acc57600080fd5b505af1925050508015611afd57506040513d601f19601f82011682018060405250810190611afa91906123c1565b60015b611ba357611b09612e89565b806308c379a01415611b665750611b1e61336d565b80611b295750611b68565b806040517f08c379a0000000000000000000000000000000000000000000000000000000008152600401611b5d919061290b565b60405180910390fd5b505b6040517f08c379a0000000000000000000000000000000000000000000000000000000008152600401611b9a9061292d565b60405180910390fd5b63bc197c8160e01b7bffffffffffffffffffffffffffffffffffffffffffffffffffffffff1916817bffffffffffffffffffffffffffffffffffffffffffffffffffffffff191614611c2a576040517f08c379a0000000000000000000000000000000000000000000000000000000008152600401611c219061294d565b60405180910390fd5b505b505050505050565b60606000600167ffffffffffffffff811115611c79577f4e487b7100000000000000000000000000000000000000000000000000000000600052604160045260246000fd5b604051908082528060200260200182016040528015611ca75781602001602082028036833780820191505090505b5090508281600081518110611ce5577f4e487b7100000000000000000000000000000000000000000000000000000000600052603260045260246000fd5b60200260200101818152505080915050919050565b611d198473ffffffffffffffffffffffffffffffffffffffff16611ee1565b15611ed9578373ffffffffffffffffffffffffffffffffffffffff1663f23a6e6187878686866040518663ffffffff1660e01b8152600401611d5f95949392919061283d565b602060405180830381600087803b158015611d7957600080fd5b505af1925050508015611daa57506040513d601f19601f82011682018060405250810190611da791906123c1565b60015b611e5057611db6612e89565b806308c379a01415611e135750611dcb61336d565b80611dd65750611e15565b806040517f08c379a0000000000000000000000000000000000000000000000000000000008152600401611e0a919061290b565b60405180910390fd5b505b6040517f08c379a0000000000000000000000000000000000000000000000000000000008152600401611e479061292d565b60405180910390fd5b63f23a6e6160e01b7bffffffffffffffffffffffffffffffffffffffffffffffffffffffff1916817bffffffffffffffffffffffffffffffffffffffffffffffffffffffff191614611ed7576040517f08c379a0000000000000000000000000000000000000000000000000000000008152600401611ece9061294d565b60405180910390fd5b505b505050505050565b6000808273ffffffffffffffffffffffffffffffffffffffff163b119050919050565b6000611f17611f1284612b76565b612b51565b90508083825260208201905082856020860282011115611f3657600080fd5b60005b85811015611f665781611f4c888261201a565b845260208401935060208301925050600181019050611f39565b5050509392505050565b6000611f83611f7e84612ba2565b612b51565b90508083825260208201905082856020860282011115611fa257600080fd5b60005b85811015611fd25781611fb888826120ec565b845260208401935060208301925050600181019050611fa5565b5050509392505050565b6000611fef611fea84612bce565b612b51565b90508281526020810184848401111561200757600080fd5b612012848285612d45565b509392505050565b60008135905061202981613403565b92915050565b600082601f83011261204057600080fd5b8135612050848260208601611f04565b91505092915050565b600082601f83011261206a57600080fd5b813561207a848260208601611f70565b91505092915050565b6000813590506120928161341a565b92915050565b6000813590506120a781613431565b92915050565b6000815190506120bc81613431565b92915050565b600082601f8301126120d357600080fd5b81356120e3848260208601611fdc565b91505092915050565b6000813590506120fb81613448565b92915050565b60006020828403121561211357600080fd5b60006121218482850161201a565b91505092915050565b6000806040838503121561213d57600080fd5b600061214b8582860161201a565b925050602061215c8582860161201a565b9150509250929050565b600080600080600060a0868803121561217e57600080fd5b600061218c8882890161201a565b955050602061219d8882890161201a565b945050604086013567ffffffffffffffff8111156121ba57600080fd5b6121c688828901612059565b935050606086013567ffffffffffffffff8111156121e357600080fd5b6121ef88828901612059565b925050608086013567ffffffffffffffff81111561220c57600080fd5b612218888289016120c2565b9150509295509295909350565b600080600080600060a0868803121561223d57600080fd5b600061224b8882890161201a565b955050602061225c8882890161201a565b945050604061226d888289016120ec565b935050606061227e888289016120ec565b925050608086013567ffffffffffffffff81111561229b57600080fd5b6122a7888289016120c2565b9150509295509295909350565b600080604083850312156122c757600080fd5b60006122d58582860161201a565b92505060206122e685828601612083565b9150509250929050565b6000806040838503121561230357600080fd5b60006123118582860161201a565b9250506020612322858286016120ec565b9150509250929050565b6000806040838503121561233f57600080fd5b600083013567ffffffffffffffff81111561235957600080fd5b6123658582860161202f565b925050602083013567ffffffffffffffff81111561238257600080fd5b61238e85828601612059565b9150509250929050565b6000602082840312156123aa57600080fd5b60006123b884828501612098565b91505092915050565b6000602082840312156123d357600080fd5b60006123e1848285016120ad565b91505092915050565b6000602082840312156123fc57600080fd5b600061240a848285016120ec565b91505092915050565b600061241f838361277a565b60208301905092915050565b61243481612cd1565b82525050565b600061244582612c0f565b61244f8185612c3d565b935061245a83612bff565b8060005b8381101561248b5781516124728882612413565b975061247d83612c30565b92505060018101905061245e565b5085935050505092915050565b6124a181612ce3565b82525050565b60006124b282612c1a565b6124bc8185612c4e565b93506124cc818560208601612d54565b6124d581612eab565b840191505092915050565b60006124eb82612c25565b6124f58185612c5f565b9350612505818560208601612d54565b61250e81612eab565b840191505092915050565b600061252482612c25565b61252e8185612c70565b935061253e818560208601612d54565b80840191505092915050565b6000612557603483612c5f565b915061256282612ec9565b604082019050919050565b600061257a602883612c5f565b915061258582612f18565b604082019050919050565b600061259d602b83612c5f565b91506125a882612f67565b604082019050919050565b60006125c0602683612c5f565b91506125cb82612fb6565b604082019050919050565b60006125e3602483612c5f565b91506125ee82613005565b604082019050919050565b6000612606602983612c5f565b915061261182613054565b604082019050919050565b6000612629601e83612c70565b9150612634826130a3565b601e82019050919050565b600061264c602583612c5f565b9150612657826130cc565b604082019050919050565b600061266f603283612c5f565b915061267a8261311b565b604082019050919050565b6000612692602383612c5f565b915061269d8261316a565b604082019050919050565b60006126b5602a83612c5f565b91506126c0826131b9565b604082019050919050565b60006126d8602083612c5f565b91506126e382613208565b602082019050919050565b60006126fb602983612c5f565b915061270682613231565b604082019050919050565b600061271e602983612c5f565b915061272982613280565b604082019050919050565b6000612741602883612c5f565b915061274c826132cf565b604082019050919050565b6000612764602183612c5f565b915061276f8261331e565b604082019050919050565b61278381612d3b565b82525050565b61279281612d3b565b82525050565b60006127a38261261c565b91506127af8284612519565b915081905092915050565b60006020820190506127cf600083018461242b565b92915050565b600060a0820190506127ea600083018861242b565b6127f7602083018761242b565b8181036040830152612809818661243a565b9050818103606083015261281d818561243a565b9050818103608083015261283181846124a7565b90509695505050505050565b600060a082019050612852600083018861242b565b61285f602083018761242b565b61286c6040830186612789565b6128796060830185612789565b818103608083015261288b81846124a7565b90509695505050505050565b600060208201905081810360008301526128b1818461243a565b905092915050565b600060408201905081810360008301526128d3818561243a565b905081810360208301526128e7818461243a565b90509392505050565b60006020820190506129056000830184612498565b92915050565b6000602082019050818103600083015261292581846124e0565b905092915050565b600060208201905081810360008301526129468161254a565b9050919050565b600060208201905081810360008301526129668161256d565b9050919050565b6000602082019050818103600083015261298681612590565b9050919050565b600060208201905081810360008301526129a6816125b3565b9050919050565b600060208201905081810360008301526129c6816125d6565b9050919050565b600060208201905081810360008301526129e6816125f9565b9050919050565b60006020820190508181036000830152612a068161263f565b9050919050565b60006020820190508181036000830152612a2681612662565b9050919050565b60006020820190508181036000830152612a4681612685565b9050919050565b60006020820190508181036000830152612a66816126a8565b9050919050565b60006020820190508181036000830152612a86816126cb565b9050919050565b60006020820190508181036000830152612aa6816126ee565b9050919050565b60006020820190508181036000830152612ac681612711565b9050919050565b60006020820190508181036000830152612ae681612734565b9050919050565b60006020820190508181036000830152612b0681612757565b9050919050565b6000602082019050612b226000830184612789565b92915050565b6000604082019050612b3d6000830185612789565b612b4a6020830184612789565b9392505050565b6000612b5b612b6c565b9050612b678282612db1565b919050565b6000604051905090565b600067ffffffffffffffff821115612b9157612b90612e5a565b5b602082029050602081019050919050565b600067ffffffffffffffff821115612bbd57612bbc612e5a565b5b602082029050602081019050919050565b600067ffffffffffffffff821115612be957612be8612e5a565b5b612bf282612eab565b9050602081019050919050565b6000819050602082019050919050565b600081519050919050565b600081519050919050565b600081519050919050565b6000602082019050919050565b600082825260208201905092915050565b600082825260208201905092915050565b600082825260208201905092915050565b600081905092915050565b6000612c8682612d3b565b9150612c9183612d3b565b9250827fffffffffffffffffffffffffffffffffffffffffffffffffffffffffffffffff03821115612cc657612cc5612e2b565b5b828201905092915050565b6000612cdc82612d1b565b9050919050565b60008115159050919050565b60007fffffffff0000000000000000000000000000000000000000000000000000000082169050919050565b600073ffffffffffffffffffffffffffffffffffffffff82169050919050565b6000819050919050565b82818337600083830152505050565b60005b83811015612d72578082015181840152602081019050612d57565b83811115612d81576000848401525b50505050565b6000612d9282612d3b565b91506000821415612da657612da5612e2b565b5b600182039050919050565b612dba82612eab565b810181811067ffffffffffffffff82111715612dd957612dd8612e5a565b5b80604052505050565b6000612ded82612d3b565b91507fffffffffffffffffffffffffffffffffffffffffffffffffffffffffffffffff821415612e2057612e1f612e2b565b5b600182019050919050565b7f4e487b7100000000000000000000000000000000000000000000000000000000600052601160045260246000fd5b7f4e487b7100000000000000000000000000000000000000000000000000000000600052604160045260246000fd5b600060033d1115612ea85760046000803e612ea5600051612ebc565b90505b90565b6000601f19601f8301169050919050565b60008160e01c9050919050565b7f455243313135353a207472616e7366657220746f206e6f6e204552433131353560008201527f526563656976657220696d706c656d656e746572000000000000000000000000602082015250565b7f455243313135353a204552433131353552656365697665722072656a6563746560008201527f6420746f6b656e73000000000000000000000000000000000000000000000000602082015250565b7f455243313135353a2062616c616e636520717565727920666f7220746865207a60008201527f65726f2061646472657373000000000000000000000000000000000000000000602082015250565b7f4f776e61626c653a206e6577206f776e657220697320746865207a65726f206160008201527f6464726573730000000000000000000000000000000000000000000000000000602082015250565b7f455243313135353a206275726e20616d6f756e7420657863656564732062616c60008201527f616e636500000000000000000000000000000000000000000000000000000000602082015250565b7f455243313135353a2063616c6c6572206973206e6f74206f776e6572206e6f7260008201527f20617070726f7665640000000000000000000000000000000000000000000000602082015250565b7f68747470733a2f2f697066732e696f2f697066732f6630313730313232300000600082015250565b7f455243313135353a207472616e7366657220746f20746865207a65726f20616460008201527f6472657373000000000000000000000000000000000000000000000000000000602082015250565b7f455243313135353a207472616e736665722063616c6c6572206973206e6f742060008201527f6f776e6572206e6f7220617070726f7665640000000000000000000000000000602082015250565b7f455243313135353a206275726e2066726f6d20746865207a65726f206164647260008201527f6573730000000000000000000000000000000000000000000000000000000000602082015250565b7f455243313135353a20696e73756666696369656e742062616c616e636520666f60008201527f72207472616e7366657200000000000000000000000000000000000000000000602082015250565b7f4f776e61626c653a2063616c6c6572206973206e6f7420746865206f776e6572600082015250565b7f455243313135353a2073657474696e6720617070726f76616c2073746174757360008201527f20666f722073656c660000000000000000000000000000000000000000000000602082015250565b7f455243313135353a206163636f756e747320616e6420696473206c656e67746860008201527f206d69736d617463680000000000000000000000000000000000000000000000602082015250565b7f455243313135353a2069647320616e6420616d6f756e7473206c656e6774682060008201527f6d69736d61746368000000000000000000000000000000000000000000000000602082015250565b7f455243313135353a206d696e7420746f20746865207a65726f2061646472657360008201527f7300000000000000000000000000000000000000000000000000000000000000602082015250565b600060443d101561337d57613400565b613385612b6c565b60043d036004823e80513d602482011167ffffffffffffffff821117156133ad575050613400565b808201805167ffffffffffffffff8111156133cb5750505050613400565b80602083010160043d0385018111156133e8575050505050613400565b6133f782602001850186612db1565b82955050505050505b90565b61340c81612cd1565b811461341757600080fd5b50565b61342381612ce3565b811461342e57600080fd5b50565b61343a81612cef565b811461344557600080fd5b50565b61345181612d3b565b811461345c57600080fd5b5056fea2646970667358221220bb7584d1cb6288f688aa52e6dd85a61c259d2d1cb27912c270f7ff7f3d893e4e64736f6c6343000804003368747470733a2f2f697066732e696f2f697066732f6630313730313232307b69647d",
  "linkReferences": {},
  "deployedLinkReferences": {}
}